{
  "contractName": "ICO",
  "abi": [
    {
      "inputs": [
        {
          "internalType": "uint256",
          "name": "_totalSupply",
          "type": "uint256"
        }
      ],
      "stateMutability": "nonpayable",
      "type": "constructor"
    },
    {
      "inputs": [],
      "name": "admin",
      "outputs": [
        {
          "internalType": "address",
          "name": "",
          "type": "address"
        }
      ],
      "stateMutability": "view",
      "type": "function",
      "constant": true
    },
    {
      "inputs": [
        {
          "internalType": "address",
          "name": "",
          "type": "address"
        }
      ],
      "name": "balances",
      "outputs": [
        {
          "internalType": "uint256",
          "name": "",
          "type": "uint256"
        }
      ],
      "stateMutability": "view",
      "type": "function",
      "constant": true
    },
    {
      "inputs": [],
      "name": "tokensLeft",
      "outputs": [
        {
          "internalType": "uint256",
          "name": "",
          "type": "uint256"
        }
      ],
      "stateMutability": "view",
      "type": "function",
      "constant": true
    },
    {
      "inputs": [],
      "name": "totalSupply",
      "outputs": [
        {
          "internalType": "uint256",
          "name": "",
          "type": "uint256"
        }
      ],
      "stateMutability": "view",
      "type": "function",
      "constant": true
    },
    {
      "inputs": [
        {
          "internalType": "uint256",
          "name": "quantity",
          "type": "uint256"
        }
      ],
      "name": "buyToken",
      "outputs": [],
      "stateMutability": "payable",
      "type": "function",
      "payable": true
    },
    {
      "inputs": [
        {
          "internalType": "uint256",
          "name": "amount",
          "type": "uint256"
        }
      ],
      "name": "updateTokensLeft",
      "outputs": [],
      "stateMutability": "nonpayable",
      "type": "function"
    },
    {
      "inputs": [
        {
          "internalType": "address",
          "name": "holder",
          "type": "address"
        }
      ],
      "name": "balanceOf",
      "outputs": [
        {
          "internalType": "uint256",
          "name": "",
          "type": "uint256"
        }
      ],
      "stateMutability": "view",
      "type": "function",
      "constant": true
    }
  ],
  "bytecode": "0x608060405234801561001057600080fd5b5060405161090a38038061090a8339818101604052810190610032919061009c565b806001819055508060028190555033600360006101000a81548173ffffffffffffffffffffffffffffffffffffffff021916908373ffffffffffffffffffffffffffffffffffffffff160217905550506100e6565b600081519050610096816100cf565b92915050565b6000602082840312156100ae57600080fd5b60006100bc84828501610087565b91505092915050565b6000819050919050565b6100d8816100c5565b81146100e357600080fd5b50565b610815806100f56000396000f3fe60806040526004361061008d576000357c01000000000000000000000000000000000000000000000000000000009004806355c91dd31161006b57806355c91dd31461011657806370a082311461013f578063b31f8f931461017c578063f851a440146101a75761008d565b806318160ddd1461009257806327e235e3146100bd5780632d296bf1146100fa575b600080fd5b34801561009e57600080fd5b506100a76101d2565b6040516100b49190610630565b60405180910390f35b3480156100c957600080fd5b506100e460048036038101906100df919061045f565b6101d8565b6040516100f19190610630565b60405180910390f35b610114600480360381019061010f9190610488565b6101f0565b005b34801561012257600080fd5b5061013d60048036038101906101389190610488565b610327565b005b34801561014b57600080fd5b506101666004803603810190610161919061045f565b6103c1565b6040516101739190610630565b60405180910390f35b34801561018857600080fd5b50610191610409565b60405161019e9190610630565b60405180910390f35b3480156101b357600080fd5b506101bc61040f565b6040516101c991906105b5565b60405180910390f35b60015481565b60006020528060005260406000206000915090505481565b600a816101fd91906106b2565b34101561023f576040517f08c379a0000000000000000000000000000000000000000000000000000000008152600401610236906105f0565b60405180910390fd5b806002541015610284576040517f08c379a000000000000000000000000000000000000000000000000000000000815260040161027b906105d0565b60405180910390fd5b806000803373ffffffffffffffffffffffffffffffffffffffff1673ffffffffffffffffffffffffffffffffffffffff168152602001908152602001600020546102ce919061065c565b6000803373ffffffffffffffffffffffffffffffffffffffff1673ffffffffffffffffffffffffffffffffffffffff168152602001908152602001600020819055508060025461031e91906106e3565b60028190555050565b600360009054906101000a900473ffffffffffffffffffffffffffffffffffffffff1673ffffffffffffffffffffffffffffffffffffffff163373ffffffffffffffffffffffffffffffffffffffff16146103b7576040517f08c379a00000000000000000000000000000000000000000000000000000000081526004016103ae90610610565b60405180910390fd5b8060028190555050565b60008060008373ffffffffffffffffffffffffffffffffffffffff1673ffffffffffffffffffffffffffffffffffffffff168152602001908152602001600020549050919050565b60025481565b600360009054906101000a900473ffffffffffffffffffffffffffffffffffffffff1681565b600081359050610444816107b1565b92915050565b600081359050610459816107c8565b92915050565b60006020828403121561047157600080fd5b600061047f84828501610435565b91505092915050565b60006020828403121561049a57600080fd5b60006104a88482850161044a565b91505092915050565b6104ba81610717565b82525050565b60006104cd60168361064b565b91507f4e6f7420656e6f75676820746f6b656e73206c656674000000000000000000006000830152602082019050919050565b600061050d602b8361064b565b91507f56616c756520696e206574686572206d75737420626520656e6f75676820746f60008301527f2062757920746f6b656e730000000000000000000000000000000000000000006020830152604082019050919050565b600061057360128361064b565b91507f4f6e6c792061646d696e206164647265737300000000000000000000000000006000830152602082019050919050565b6105af81610749565b82525050565b60006020820190506105ca60008301846104b1565b92915050565b600060208201905081810360008301526105e9816104c0565b9050919050565b6000602082019050818103600083015261060981610500565b9050919050565b6000602082019050818103600083015261062981610566565b9050919050565b600060208201905061064560008301846105a6565b92915050565b600082825260208201905092915050565b600061066782610749565b915061067283610749565b9250827fffffffffffffffffffffffffffffffffffffffffffffffffffffffffffffffff038211156106a7576106a6610753565b5b828201905092915050565b60006106bd82610749565b91506106c883610749565b9250826106d8576106d7610782565b5b828204905092915050565b60006106ee82610749565b91506106f983610749565b92508282101561070c5761070b610753565b5b828203905092915050565b600061072282610729565b9050919050565b600073ffffffffffffffffffffffffffffffffffffffff82169050919050565b6000819050919050565b7f4e487b7100000000000000000000000000000000000000000000000000000000600052601160045260246000fd5b7f4e487b7100000000000000000000000000000000000000000000000000000000600052601260045260246000fd5b6107ba81610717565b81146107c557600080fd5b50565b6107d181610749565b81146107dc57600080fd5b5056fea2646970667358221220d7bfc295d753045139744623d5ac7cf4324a6ad5bed7adb684c9abad1088360e64736f6c63430008000033",
  "immutableReferences": {},
  "source": "pragma solidity >=0.4.22 <0.9.0;\n\ncontract ICO {\n\n\tmapping(address => uint) public balances;\n\tuint public totalSupply;\n\tuint public tokensLeft;\n\taddress public admin;\n\n\tconstructor(uint _totalSupply) public {\n\t\ttotalSupply = _totalSupply;\n\t\ttokensLeft = _totalSupply;\n\t\tadmin = msg.sender;\n\t}\n\n\tfunction buyToken(uint quantity) external payable {\n\t\trequire(msg.value >= quantity/10, \n\t\t\t\"Value in ether must be enough to buy tokens\");\n\t\trequire(tokensLeft >= quantity, \"Not enough tokens left\");\n\t\tbalances[msg.sender] = balances[msg.sender] + quantity;\n\t\ttokensLeft  = tokensLeft - quantity;\n\t}\n\n\tfunction updateTokensLeft(uint amount) external {\n\t\trequire(msg.sender == admin, \"Only admin address\");\n\t\ttokensLeft = amount;\n\t} \n\n\tfunction balanceOf(address holder) external view returns(uint) {\n\t\treturn balances[holder];\n\t}\n\n\n\n\n\n\n\n\n\n\n\n}",
  "sourcePath": "/Users/apple/Documents/JavaScript_lang/ERC20_Token_OpenZeplin/contracts/ICO.sol",
  "compiler": {
    "name": "solc",
    "version": "0.8.0+commit.c7dfd78e.Emscripten.clang"
  },
  "schemaVersion": "3.4.1",
  "updatedAt": "2021-06-11T08:40:22.617Z",
  "networkType": "ethereum",
  "devdoc": {
    "kind": "dev",
    "methods": {},
    "version": 1
  },
  "userdoc": {
    "kind": "user",
    "methods": {},
    "version": 1
  }
}