{
  "contractName": "Token",
  "abi": [
    {
      "inputs": [
        {
          "internalType": "string",
          "name": "name",
          "type": "string"
        },
        {
          "internalType": "string",
          "name": "symbol",
          "type": "string"
        },
        {
          "internalType": "uint256",
          "name": "_initialSupply",
          "type": "uint256"
        }
      ],
      "stateMutability": "nonpayable",
      "type": "constructor"
    },
    {
      "anonymous": false,
      "inputs": [
        {
          "indexed": true,
          "internalType": "address",
          "name": "from",
          "type": "address"
        },
        {
          "indexed": true,
          "internalType": "address",
          "name": "to",
          "type": "address"
        },
        {
          "indexed": false,
          "internalType": "uint256",
          "name": "amount",
          "type": "uint256"
        }
      ],
      "name": "Transfer",
      "type": "event"
    },
    {
      "inputs": [],
      "name": "admin",
      "outputs": [
        {
          "internalType": "address",
          "name": "",
          "type": "address"
        }
      ],
      "stateMutability": "view",
      "type": "function",
      "constant": true
    },
    {
      "inputs": [
        {
          "internalType": "address",
          "name": "",
          "type": "address"
        }
      ],
      "name": "balances",
      "outputs": [
        {
          "internalType": "uint256",
          "name": "",
          "type": "uint256"
        }
      ],
      "stateMutability": "view",
      "type": "function",
      "constant": true
    },
    {
      "inputs": [],
      "name": "maxTotalSupply",
      "outputs": [
        {
          "internalType": "uint256",
          "name": "",
          "type": "uint256"
        }
      ],
      "stateMutability": "view",
      "type": "function",
      "constant": true
    },
    {
      "inputs": [
        {
          "internalType": "address",
          "name": "recipient",
          "type": "address"
        },
        {
          "internalType": "uint256",
          "name": "amount",
          "type": "uint256"
        }
      ],
      "name": "transfer",
      "outputs": [
        {
          "internalType": "bool",
          "name": "",
          "type": "bool"
        }
      ],
      "stateMutability": "nonpayable",
      "type": "function"
    },
    {
      "inputs": [
        {
          "internalType": "address",
          "name": "_owner",
          "type": "address"
        }
      ],
      "name": "balanceOf",
      "outputs": [
        {
          "internalType": "uint256",
          "name": "",
          "type": "uint256"
        }
      ],
      "stateMutability": "view",
      "type": "function",
      "constant": true
    },
    {
      "inputs": [
        {
          "internalType": "address",
          "name": "newAdmin",
          "type": "address"
        }
      ],
      "name": "updateAdmin",
      "outputs": [],
      "stateMutability": "nonpayable",
      "type": "function"
    }
  ],
  "bytecode": "0x60806040523480156200001157600080fd5b5060405162000aad38038062000aad833981810160405281019062000037919062000156565b336000806101000a81548173ffffffffffffffffffffffffffffffffffffffff021916908373ffffffffffffffffffffffffffffffffffffffff16021790555080600181905550600154600260003373ffffffffffffffffffffffffffffffffffffffff1673ffffffffffffffffffffffffffffffffffffffff16815260200190815260200160002081905550505050620002ce565b6000620000e4620000de8462000212565b620001de565b905082815260208101848484011115620000fd57600080fd5b6200010a8482856200024f565b509392505050565b600082601f8301126200012457600080fd5b815162000136848260208601620000cd565b91505092915050565b6000815190506200015081620002b4565b92915050565b6000806000606084860312156200016c57600080fd5b600084015167ffffffffffffffff8111156200018757600080fd5b620001958682870162000112565b935050602084015167ffffffffffffffff811115620001b357600080fd5b620001c18682870162000112565b9250506040620001d4868287016200013f565b9150509250925092565b6000604051905081810181811067ffffffffffffffff8211171562000208576200020762000285565b5b8060405250919050565b600067ffffffffffffffff82111562000230576200022f62000285565b5b601f19601f8301169050602081019050919050565b6000819050919050565b60005b838110156200026f57808201518184015260208101905062000252565b838111156200027f576000848401525b50505050565b7f4e487b7100000000000000000000000000000000000000000000000000000000600052604160045260246000fd5b620002bf8162000245565b8114620002cb57600080fd5b50565b6107cf80620002de6000396000f3fe608060405234801561001057600080fd5b506004361061007f576000357c01000000000000000000000000000000000000000000000000000000009004806327e235e3146100845780632ab4d052146100b457806370a08231146100d2578063a9059cbb14610102578063e2f273bd14610132578063f851a4401461014e575b600080fd5b61009e60048036038101906100999190610516565b61016c565b6040516100ab919061063e565b60405180910390f35b6100bc610184565b6040516100c9919061063e565b60405180910390f35b6100ec60048036038101906100e79190610516565b61018a565b6040516100f9919061063e565b60405180910390f35b61011c6004803603810190610117919061053f565b6101d3565b6040516101299190610603565b60405180910390f35b61014c60048036038101906101479190610516565b6103f7565b005b6101566104c8565b60405161016391906105e8565b60405180910390f35b60026020528060005260406000206000915090505481565b60015481565b6000600260008373ffffffffffffffffffffffffffffffffffffffff1673ffffffffffffffffffffffffffffffffffffffff168152602001908152602001600020549050919050565b6000816101ff60008054906101000a900473ffffffffffffffffffffffffffffffffffffffff1661018a565b101561020a57600080fd5b81600260008060009054906101000a900473ffffffffffffffffffffffffffffffffffffffff1673ffffffffffffffffffffffffffffffffffffffff1673ffffffffffffffffffffffffffffffffffffffff1681526020019081526020016000205461027691906106c0565b600260008060009054906101000a900473ffffffffffffffffffffffffffffffffffffffff1673ffffffffffffffffffffffffffffffffffffffff1673ffffffffffffffffffffffffffffffffffffffff1681526020019081526020016000208190555081600260008573ffffffffffffffffffffffffffffffffffffffff1673ffffffffffffffffffffffffffffffffffffffff16815260200190815260200160002054610325919061066a565b600260008573ffffffffffffffffffffffffffffffffffffffff1673ffffffffffffffffffffffffffffffffffffffff168152602001908152602001600020819055508273ffffffffffffffffffffffffffffffffffffffff1660008054906101000a900473ffffffffffffffffffffffffffffffffffffffff1673ffffffffffffffffffffffffffffffffffffffff167fddf252ad1be2c89b69c2b068fc378daa952ba7f163c4a11628f55a4df523b3ef846040516103e5919061063e565b60405180910390a36001905092915050565b60008054906101000a900473ffffffffffffffffffffffffffffffffffffffff1673ffffffffffffffffffffffffffffffffffffffff163373ffffffffffffffffffffffffffffffffffffffff1614610485576040517f08c379a000000000000000000000000000000000000000000000000000000000815260040161047c9061061e565b60405180910390fd5b806000806101000a81548173ffffffffffffffffffffffffffffffffffffffff021916908373ffffffffffffffffffffffffffffffffffffffff16021790555050565b60008054906101000a900473ffffffffffffffffffffffffffffffffffffffff1681565b6000813590506104fb8161076b565b92915050565b60008135905061051081610782565b92915050565b60006020828403121561052857600080fd5b6000610536848285016104ec565b91505092915050565b6000806040838503121561055257600080fd5b6000610560858286016104ec565b925050602061057185828601610501565b9150509250929050565b610584816106f4565b82525050565b61059381610706565b82525050565b60006105a6601b83610659565b91507f4f6e6c792061646d696e2063616e207570646174652061646d696e00000000006000830152602082019050919050565b6105e281610732565b82525050565b60006020820190506105fd600083018461057b565b92915050565b6000602082019050610618600083018461058a565b92915050565b6000602082019050818103600083015261063781610599565b9050919050565b600060208201905061065360008301846105d9565b92915050565b600082825260208201905092915050565b600061067582610732565b915061068083610732565b9250827fffffffffffffffffffffffffffffffffffffffffffffffffffffffffffffffff038211156106b5576106b461073c565b5b828201905092915050565b60006106cb82610732565b91506106d683610732565b9250828210156106e9576106e861073c565b5b828203905092915050565b60006106ff82610712565b9050919050565b60008115159050919050565b600073ffffffffffffffffffffffffffffffffffffffff82169050919050565b6000819050919050565b7f4e487b7100000000000000000000000000000000000000000000000000000000600052601160045260246000fd5b610774816106f4565b811461077f57600080fd5b50565b61078b81610732565b811461079657600080fd5b5056fea2646970667358221220cb3f5dac60b3026e846103b3af56e726397652b48bebf1306adcd3d519d72fc664736f6c63430008000033",
  "immutableReferences": {},
  "source": "pragma solidity >=0.4.22 <0.9.0;\n\nimport \"@openzeppelin/contracts/token/ERC20/ERC20.sol\";\n\n\n\n//Creating our own contract\ncontract Token {\n\n\taddress public admin;\n\tuint public maxTotalSupply;\n\tmapping(address => uint) public balances;\n\n\tevent Transfer(address indexed from, address indexed to, uint256 amount);\n\n\tconstructor(string memory name, \n\t\t\t\tstring memory symbol,\n\t\t\t\tuint _initialSupply) \n\t\t\t\t public {\n\n\t\tadmin = msg.sender;\n\t\tmaxTotalSupply = _initialSupply;\n\t\tbalances[msg.sender] = maxTotalSupply; \n\t}\n\n    function transfer(address recipient, uint amount) \n     public returns(bool) {\n     \trequire(balanceOf(admin) >= amount);\n\t\tbalances[admin] = balances[admin] - amount;\n\t\tbalances[recipient] = balances[recipient] + amount;  \n\t\temit Transfer(admin, recipient, amount);\n\n\t\treturn true;\n\t}\n\n\t//transfer event\n\t//transfer function\n\n\n\tfunction balanceOf(address _owner) public view returns(uint256) {\n\t\treturn balances[_owner];\n\t}\n\n\n\tfunction updateAdmin(address newAdmin) external {\n\t\trequire(msg.sender == admin, \"Only admin can update admin\");\n\t\tadmin = newAdmin;\n\t}\n\n\n\n\t\n\n\n}",
  "sourcePath": "/Users/apple/Documents/JavaScript_lang/ERC20_Token_OpenZeplin/contracts/Token.sol",
  "compiler": {
    "name": "solc",
    "version": "0.8.0+commit.c7dfd78e.Emscripten.clang"
  },
  "schemaVersion": "3.4.1",
  "updatedAt": "2021-06-11T08:40:23.498Z",
  "networkType": "ethereum",
  "devdoc": {
    "kind": "dev",
    "methods": {},
    "version": 1
  },
  "userdoc": {
    "kind": "user",
    "methods": {},
    "version": 1
  }
}